:100000000C943E000C945B000C945B000C945B0021
:100010000C945B000C945B000C945B000C945B00F4
:100020000C945B000C945B000C945B000C945B00E4
:100030000C945B000C945B000C945B000C945B00D4
:100040000C945B000C945B000C945B000C945B00C4
:100050000C945B000C945B000C945B000C945B00B4
:100060000C945B000C945B000C9427020C945B00D6
:100070000C945B000C945B000C945B0011241FBE7D
:10008000CFEFD4E0DEBFCDBF11E0A0E0B1E0E4E00F
:10009000F5E002C005900D92A631B107D9F721E035
:1000A000A6E1B1E001C01D92A833B207E1F70E94BA
:1000B000F7000C9480020C94000090913701E92F16
:1000C000F0E0EA5EFE4F808381E0890F9E3019F0F8
:1000D0008093370108951092370108954298E09176
:1000E0003601F0E0E35FFE4F80818093BB0080919A
:1000F000360191E0980F873019F0909336010895FA
:100100001092360108959C01ADE7B0E00E947102A3
:10011000611571058105910509F40895000000003D
:1001200000000000000000000000000000000000CF
:1001300000000000000000000000000000000000BF
:1001400000000000000000000000000000000000AF
:10015000000000000000000000000000000000009F
:10016000000000000000000000000000000000008F
:10017000000000000000000000000000000000007F
:100180000000000000000000000000006150710944
:1001900081099109BDCFEFE0F1E080E026ED809389
:1001A0007C0090917C00906290937C0020937A0078
:1001B00090917A0094FFFCCF9091790091938F5F9A
:1001C000863069F70895CF93DF930E94D301C6E18B
:1001D000D1E04A81698188810E94E201239681E011
:1001E000C532D807B1F7DF91CF910C94DF0185B705
:1001F000806885BF85B7806885BF81E090E00E94F8
:1002000083001AB88FEF8BB984B1807E84B985B131
:100210008F6185B93A9A42980E94B9016EE670E002
:100220008DE590E00E940E0280E10E941702789412
:10023000F12C4F2D61E081E00E94F7018EE190E00A
:100240000E948300F39422E3F212F3CFF12C4F2D9E
:1002500063E083E00E94F7018EE190E00E9483005A
:10026000F39482E3F812F3CFF12C4F2D66E086E091
:100270000E94F7018EE190E00E948300F39422E354
:10028000F212F3CFF12C89E1E82E89E08F1508F006
:100290005DC00E94E3000E94CB00F12CE5E2F1E09A
:1002A00030E020E040E0819181115EC0283008F00C
:1002B0004FC089B190E0022E02C0959587950A94AF
:1002C000E2F78170D901A050BF4F9C91981729F097
:1002D0008C93DF011197EC9241E02F5F3F4F2D305F
:1002E000310509F7442369F1E0E0F1E090E080E0B6
:1002F00030E021912170C22F20E0D22FAE01082ED4
:1003000001C0440F0A94EAF7342B01968830910516
:1003100081F7E8E0F1E090E080E04191042F017086
:1003200010E0A801082E01C0440F0A94EAF7242B1C
:1003300001968530910589F730930D0120930E01C8
:10034000429A81E090E00E9483009FCFF394A6CF71
:1003500083B18F7190E0B9016850710902C0959521
:1003600087956A95E2F7ADCFDF01119781508C93A5
:10037000B4CF249A2C9A259A279A2D9A8CB580640A
:100380008CBD8CB580618CBD8CB58C608CBD8DB501
:1003900081608DBD8CB583608CBD08958EBD0DB41C
:1003A00007FEFDCF089580E00E94CE0180E00E940C
:1003B000CE0180E00E94CE0180E00C94CE018FEF50
:1003C0000C94CE011F93CF93DF93182FD62FC42FF9
:1003D0008FEF0E94CE01812F0E94CE018D2F0E94AF
:1003E000CE018C2FDF91CF911F910C94CE010F93F2
:1003F0001F93CF93DF93D82F162F042F0E94D30182
:10040000C5E0402F612F8D2F0E94E201C150C9F736
:10041000DF91CF911F910F910C94DF0190933501E3
:100420008093340170933301609332010895F894FE
:10043000880F8093BA0085EC8093BC00789408956F
:10044000F8941092BC001092BA00789408951F920C
:100450000F920FB60F9211242F933F934F935F93F8
:100460006F937F938F939F93AF93BF93EF93FF937C
:100470008091B900887F803831F1C0F4882371F110
:100480008036F1F085EC8093BC00FF91EF91BF9135
:10049000AF919F918F917F916F915F914F913F911C
:1004A0002F910F900FBE0F901F901895883A99F0DA
:1004B000883B41F7E0913201F09133010995E2CF99
:1004C00010923701DFCF8091BB00E0913401F091B1
:1004D00035010995D7CF10923601ECCF1092BC00B0
:1004E000D1CFA29FB001B39FC001A39F700D811D0A
:1004F0001124911DB29F700D811D1124911D08952D
:04050000F894FFCF9D
:1005040001010101010101010101010101FFFF00DC
:06051400000000000000E1
:00000001FF
