:100000000C943E000C945B000C945B000C945B0021
:100010000C945B000C945B000C945B000C945B00F4
:100020000C945B000C945B000C945B000C945B00E4
:100030000C945B000C945B000C945B000C945B00D4
:100040000C945B000C945B000C945B000C945B00C4
:100050000C945B000C945B000C945B000C945B00B4
:100060000C945B000C945B000C942A020C945B00D3
:100070000C945B000C945B000C945B0011241FBE7D
:10008000CFEFD4E0DEBFCDBF11E0A0E0B1E0EAE009
:10009000F5E002C005900D92A432B107D9F721E036
:1000A000A4E2B1E001C01D92A733B207E1F70E94BC
:1000B000F7000C9483020C94000090913601E92F14
:1000C000F0E0E050FF4F808381E0890F9E3019F00F
:1000D0008093360108951092360108954298E09178
:1000E0003501F0E0E45EFE4F80818093BB0080919B
:1000F000350191E0980F873019F0909335010895FC
:100100001092350108959C01ADE7B0E00E947402A1
:10011000611571058105910509F40895000000003D
:1001200000000000000000000000000000000000CF
:1001300000000000000000000000000000000000BF
:1001400000000000000000000000000000000000AF
:10015000000000000000000000000000000000009F
:10016000000000000000000000000000000000008F
:10017000000000000000000000000000000000007F
:100180000000000000000000000000006150710944
:1001900081099109BDCFEEE1F1E080E026ED809389
:1001A0007C0090917C00906290937C0020937A0078
:1001B00090917A0094FFFCCF9091790091938F5F9A
:1001C000863069F70895CF93DF930E94D601C0E08F
:1001D000D1E04A81698188810E94E501239681E00E
:1001E000CF30D807B1F7DF91CF910C94E20185B7FA
:1001F000806885BF85B7806885BF81E090E00E94F8
:1002000083001AB88FEF8BB984B1807E84B985B131
:100210008F6185B93A9A42980E94BC016EE670E0FF
:100220008DE590E00E94110280E10E941A0278940C
:1002300044E660E080E00E94FA0182E390E00E94E0
:10024000830044E664E680E00E94FA0182E390E0E5
:100250000E94830044E660E084E60E94FA0182E3A3
:1002600090E00E94830044E664E684E60E94FA017E
:1002700082E390E00E94830040E060E080E00E9422
:10028000FA0182E390E00E948300F12C89E1E82EDC
:1002900029E02F1508F05DC00E94E3000E94CB000A
:1002A000F12CE4E2F1E030E020E040E081918111C6
:1002B0005EC0283008F04FC089B190E0022E02C025
:1002C000959587950A94E2F78170D901A15FBE4F99
:1002D0009C91981729F08C93DF011197EC9241E0E3
:1002E0002F5F3F4F2D30310509F7442369F1EFE0CF
:1002F000F1E090E080E030E021912170C22F20E019
:10030000D22FAE01082E01C0440F0A94EAF7342B15
:1003100001968830910581F7E7E1F1E090E080E017
:100320004191042F017010E0A801082E01C0440F74
:100330000A94EAF7242B01968530910589F73093CA
:100340001C0120931D01429A81E090E00E948300ED
:100350009FCFF394A6CF83B18F7190E0B90168501D
:10036000710902C0959587956A95E2F7ADCFDF01D7
:10037000119781508C93B4CF249A2C9A259A279A5E
:100380002D9A8CB580648CBD8CB580618CBD8CB58C
:100390008C608CBD8DB581608DBD8CB583608CBD4E
:1003A00008958EBD0DB407FEFDCF089580E00E9434
:1003B000D10180E00E94D10180E00E94D10180E063
:1003C0000C94D1018FEF0C94D1011F93CF93DF9345
:1003D000182FD62FC42F8FEF0E94D101812F0E949A
:1003E000D1018D2F0E94D1018C2FDF91CF911F91D0
:1003F0000C94D1010F931F93CF93DF93D82F162F17
:10040000042F0E94D601C5E0402F612F8D2F0E943E
:10041000E501C150C9F7DF91CF911F910F910C9465
:10042000E201909334018093330170933201609321
:1004300031010895F894880F8093BA0085EC809379
:10044000BC0078940895F8941092BC001092BA0001
:10045000789408951F920F920FB60F9211242F9344
:100460003F934F935F936F937F938F939F93AF933C
:10047000BF93EF93FF938091B900887F803831F16B
:10048000C0F4882371F18036F1F085EC8093BC00D4
:10049000FF91EF91BF91AF919F918F917F916F915C
:1004A0005F914F913F912F910F900FBE0F901F9032
:1004B0001895883A99F0883B41F7E0913101F09125
:1004C00032010995E2CF10923601DFCF8091BB0057
:1004D000E0913301F09134010995D7CF10923501A5
:1004E000ECCF1092BC00D1CFA29FB001B39FC0014E
:1004F000A39F700D811D1124911DB29F700D811D50
:0A0500001124911D0895F894FFCF17
:10050A000A00001400001E0000280000320000014A
:10051A00010101010101010101010101FFFF0000C7
:04052A0000000000CD
:00000001FF
